:020000040800F2
:1000000000280020590900087D080008830800081E
:10001000890800088F080008950800080000000003
:100020000000000000000000000000009B08000825
:10003000A708000800000000B3080008BF08000877
:10004000A1090008A1090008A1090008A1090008E8
:10005000A1090008A1090008A1090008A1090008D8
:10006000A1090008A1090008A1090008A1090008C8
:10007000A1090008A1090008A1090008A1090008B8
:10008000A1090008A1090008A1090008A1090008A8
:10009000A1090008A1090008A1090008A109000898
:1000A000A1090008A1090008A1090008A109000888
:1000B000CD080008A109000800000000A1090008FF
:1000C000A10900080000000000000000A1090008CC
:1000D00000000000A1090008A109000800000000BC
:1000E000A1090008A1090008A109000800000000FA
:1000F0000000000000000000000000000000000000
:0C01000000000000000000005FF808F1A3
:10010C0010B5054C237833B9044B13B10448AFF345
:10011C0000800123237010BD84000020000000002B
:10012C009C21000808B5034B1BB103490348AFF3EE
:10013C00008008BD00000000880000209C21000801
:10014C0080B400AF034B01221A6000BFBD4680BCD7
:10015C00704700BFB000002080B400AF064B1B6896
:10016C00002B04D0044B00221A60012300E0002372
:10017C001846BD4680BC7047B000002080B500AF6B
:10018C00224B1B68224A1360224B1B681F4A1360C8
:10019C000121214800F0EAFE03461A461D4B1A6065
:1001AC001B4B1A68194B1B689A422CD1174B1A68B7
:1001BC00184B1B689A4226D1164B1A68174B1B68B2
:1001CC009A420ED0134B1B68144A1360114B1B68D8
:1001DC00002B18D1124B01221A60124B32221A60DA
:1001EC0011E0104B1B68013B0E4A13600D4B1B6852
:1001FC00002B08DC074B1B68002B01D1FFF7A0FF7D
:10020C00084B32221A6000BF80BD00BF04000020E2
:10021C000000002008000020000C01400C00002011
:10022C00B00000201000002080B500AFFFF7A6FF43
:10023C00FFF792FF0346002B03D08021024800F009
:10024C00C4FE00BF80BD00BF0008014080B500AFF8
:10025C000421024800F0B9FE00BF80BD000C014033
:10026C0080B500AF0821024800F0AFFE00BF80BD92
:10027C000008014080B500AF1021024800F0A5FE37
:10028C0000BF80BD0008014080B500AF20210248AE
:10029C0000F09BFE00BF80BD0008014080B500AFA0
:1002AC0000224021024800F078FE00BF80BD00BF54
:1002BC000008014080B500AF00F06EFB00F058F86C
:1002CC0000F0DEF800F090F8204801F0C3FA0122AB
:1002DC0008211F4800F061FE012210211C4800F08B
:1002EC005CFE012220211A4800F057FE0122402119
:1002FC00174800F052FE01228021154800F04DFEF7
:10030C0001220421134800F048FE03220021124868
:10031C0000F0DCF932223221104800F0D7F96422C7
:10032C0064210F4800F0D2F9962296210D4800F076
:10033C00CDF9C822C8210C4800F0C8F90022FA21D6
:10034C000A4800F0C3F900F02FF9FCE7B4000020D4
:10035C0000080140000C0140350200085902000859
:10036C006D0200088102000895020008A90200082D
:10037C0080B590B000AF07F1180328220021184671
:10038C0001F03AFE3B1D00221A605A609A60DA6056
:10039C001A610223BB610123BB621023FB620023A1
:1003AC007B6307F11803184600F028FE0346002B68
:1003BC0001D000F0D5F80F237B600023BB60002335
:1003CC00FB6000233B6100237B613B1D0021184631
:1003DC0001F094F80346002B01D000F0C1F800BFE7
:1003EC004037BD4680BD000080B586B000AF07F138
:1003FC00080300221A605A609A60DA603B460022B9
:10040C001A605A601D4B4FF080421A601B4B41F62C
:10041C003F725A60194B00229A60184B0922DA601D
:10042C00164B00221A61154B00229A61134801F0F9
:10043C00C1F90346002B01D000F092F84FF4805321
:10044C00BB6007F1080319460C4801F057FB034643
:10045C00002B01D000F084F800233B6000237B606C
:10046C003B461946054801F023FD0346002B01D0FD
:10047C0000F076F800BF1837BD4680BDB4000020F0
:10048C0080B586B000AF07F1080300221A605A60ED
:10049C009A60DA60264B9B69254A43F0040393610A
:1004AC00234B9B6903F004037B607B68204B9B69A7
:1004BC001F4A43F0080393611D4B9B6903F008032B
:1004CC003B603B680022F8211A4800F066FD0022D0
:1004DC000621194800F061FDF823BB600123FB6085
:1004EC0000233B6102237B6107F108031946114885
:1004FC0000F0C2FB0123BB600023FB6001233B61C6
:10050C0007F1080319460C4800F0B6FB0623BB6044
:10051C000123FB6000233B6102237B6107F108038D
:10052C001946054800F0A8FB00BF1837BD4680BD32
:10053C000010024000080140000C014080B582B060
:10054C0000AF78607B681A68044B1B689A4201D133
:10055C0000F00CF800BF0837BD4680BDB400002089
:10056C0080B400AF72B600BFFEE7000080B400AFED
:10057C000C4B1B68002B10D00A4B1B685B68002BC4
:10058C0005D1084B1B68DA680132DA6006E0054BCE
:10059C001B685A68013A5A6000E000BFBD4680BC37
:1005AC00704700BFA000002080B500AF184B1B683F
:1005BC00002B2AD0164B1B68DB68002B26D0144B63
:1005CC001B681B689847124B1B68DA68013ADA60A3
:1005DC000F4B1B68DB68002B18D10D4B1B689B68FD
:1005EC00002B0BD00A4B1B681868094B1B689968C9
:1005FC00074B1B689B681A4600F068F8044B1B6895
:10060C001B69184600F006F800E000BF80BD00BF73
:10061C00A000002080B584B000AF78602A4B1B6826
:10062C00002B01D110234AE0274B1B68FB60264BA3
:10063C001B68BB6004E0FB68BB60FB685B69FB602C
:10064C00FB68002B04D0FB681B697A689A42F2D1D4
:10065C00FB68002B01D1102331E0FB685A69BB68A1
:10066C005A617B68002B03D1BB685B69164A136027
:10067C00FB685B69002B05D1F86801F0B5FC7B6861
:10068C00DBB21CE0BB685B695968FB685A68BB68E5
:10069C005B690A445A60BB685B69BB6007E0BB6876
:1006AC001B695A1EBB681A61BB685B69BB60BB687F
:1006BC00002BF4D1F86801F097FC7B68DBB218468C
:1006CC001037BD4680BD00BFA000002080B588B0AB
:1006DC0000AFF860B9607A60182001F07DFC034629
:1006EC00FB61FB69FA681A60FB69BA685A60FB69BE
:1006FC007A689A60FB690022DA60FB6900221A6151
:10070C00FB6900225A612E4B1B68002B04D12C4A2A
:10071C00FB69136001234FE0294B1B68BB61284B1D
:10072C001B687B610BE0FB695A68BB695B68D21A7A
:10073C00FB695A60BB697B61BB695B69BB61BB6967
:10074C00002B05D0FB695A68BB695B689A42EAD2F8
:10075C007A69BB699A420BD07B69FA695A61FB6969
:10076C00BA695A617B691B695A1CFB691A6105E0FD
:10077C00FB69BA695A61124AFB691360BB69002BA9
:10078C0006D0BB695A68FB695B68D21ABB695A60B0
:10079C00FB697B61FB695B69FB6109E07B691B6938
:1007AC005A1CFB691A61FB697B61FB695B69FB6124
:1007BC00FB69002BF2D1012318462037BD4680BDC2
:1007CC00A000002080B485B000AF154B9B69144A83
:1007DC0043F001039361124B9B6903F00103BB606F
:1007EC00BB680F4BDB690E4A43F08053D3610C4B53
:1007FC00DB6903F080537B607B680A4B5B68FB60B2
:10080C00FB6823F0E063FB60FB6843F08063FB60F4
:10081C00044AFB68536000BF1437BD4680BC704768
:10082C00001002400000014080B584B000AF786039
:10083C007B681B68B3F1804F13D10C4BDB690B4AFF
:10084C0043F00103D361094BDB6903F00103FB6047
:10085C00FB68002200211C2000F0D7F91C2000F0BE
:10086C00F0F900BF1037BD4680BD00BF001002403C
:10087C0080B400AFFEE780B400AFFEE780B400AFF9
:10088C00FEE780B400AFFEE780B400AFFEE780B4B3
:10089C0000AF00BFBD4680BC704780B400AF00BF46
:1008AC00BD4680BC704780B400AF00BFBD4680BC65
:1008BC00704780B500AF00F0B5F800BF80BD0000F8
:1008CC0080B500AF024801F011F800BF80BD00BF39
:1008DC00B400002080B586B000AF7860144A154B88
:1008EC00D31A7B617B693B61134B1B68002B02D1D4
:1008FC00114B124A1A60104B1A687B6813443A6900
:10090C009A4207D201F03EFB03460C221A604FF0CC
:10091C00FF3309E0084B1B68FB60074B1A687B68C8
:10092C001344054A1360FB6818461837BD4680BD52
:10093C000028002000040000A4000020100100206A
:10094C0080B400AF00BFBD4680BC7047FFF7F8FF16
:10095C000B480C490C4A002302E0D458C450043311
:10096C00C4188C42F9D3094A094C002301E01360E6
:10097C000432A242FBD301F00BFBFFF79BFC704748
:10098C000000002084000020E021000884000020EA
:10099C0010010020FEE7000080B500AF084B1B687B
:1009AC00074A43F010031360032000F023F90F20D3
:1009BC0000F008F8FFF706FF0023184680BD00BFC3
:1009CC000020024080B582B000AF7860124B1A68EC
:1009DC00124B1B7819464FF47A73B3FBF1F3B2FB4D
:1009EC00F3F3184600F03BF90346002B01D001232A
:1009FC000EE07B680F2B0AD8002279684FF0FF308D
:100A0C0000F003F9064A7B681360002300E0012321
:100A1C0018460837BD4680BD140000201C0000207D
:100A2C001800002080B400AF054B1B781A46054B0C
:100A3C001B681344034A136000BFBD4680BC70475B
:100A4C001C000020FC00002080B400AF024B1B688F
:100A5C001846BD4680BC7047FC00002080B485B0B1
:100A6C0000AF78607B6803F00703FB600C4BDB681E
:100A7C00BB60BA684FF6FF031340BB60FB681A02F9
:100A8C00BB68134343F0BF6343F40033BB60044AB9
:100A9C00BB68D36000BF1437BD4680BC704700BF35
:100AAC0000ED00E080B400AF044BDB681B0A03F0E0
:100ABC0007031846BD4680BC704700BF00ED00E040
:100ACC0080B483B000AF0346FB7197F90730002B5D
:100ADC000BDBFB7903F01F02064997F907305B0922
:100AEC00012000FA02F241F8232000BF0C37BD466A
:100AFC0080BC704700E100E080B483B000AF0346D7
:100B0C003960FB7197F90730002B0ADB3B68DAB2CE
:100B1C000C4997F907301201D2B20B4483F8002329
:100B2C000AE03B68DAB20849FB7903F00F03043B97
:100B3C001201D2B20B441A7600BF0C37BD4680BCF2
:100B4C00704700BF00E100E000ED00E080B489B028
:100B5C0000AFF860B9607A60FB6803F00703FB61D3
:100B6C00FB69C3F10703042B28BF0423BB61FB699A
:100B7C000433062B02D9FB69033B00E000237B61A5
:100B8C004FF0FF32BB6902FA03F3DA43BB681A4039
:100B9C007B699A404FF0FF317B6901FA03F3D9432B
:100BAC007B680B40134318462437BD4680BC704706
:100BBC0080B582B000AF78607B68013BB3F1807F79
:100BCC0001D301230FE00A4A7B68013B53600F21DC
:100BDC004FF0FF30FFF790FF054B00229A60044B5B
:100BEC0007221A60002318460837BD4680BD00BF97
:100BFC0010E000E080B582B000AF78607868FFF755
:100C0C002DFF00BF0837BD4680BD80B586B000AF54
:100C1C000346B9607A60FB7300237B61FFF742FFE8
:100C2C0078617A68B9687869FFF790FF024697F99E
:100C3C000F3011461846FFF75FFF00BF1837BD464F
:100C4C0080BD80B582B000AF0346FB7197F90730C9
:100C5C001846FFF735FF00BF0837BD4680BD80B58D
:100C6C0082B000AF78607868FFF7A2FF03461846A1
:100C7C000837BD4680BD000080B48BB000AF7860F3
:100C8C00396000237B6200233B6248E101227B6ACE
:100C9C0002FA03F3FB613B681B68FA691340BB6102
:100CAC00BA69FB699A4240F037813B685B68A34A9A
:100CBC0093425ED0A14A934275D8A14A934258D030
:100CCC009F4A93426FD89F4A934252D09D4A934277
:100CDC0069D89D4A93424CD09B4A934263D89B4A15
:100CEC00934246D0994A93425DD8122B2AD8122BA4
:100CFC0059D801A252F823F07F0D0008590D0008B5
:100D0C006B0D0008AD0D0008B30D0008B30D000805
:100D1C00B30D0008B30D0008B30D0008B30D0008A7
:100D2C00B30D0008B30D0008B30D0008B30D000897
:100D3C00B30D0008B30D0008B30D0008610D0008D9
:100D4C00750D0008824A934213D02CE03B68DB6897
:100D5C003B6229E03B68DB6804333B6224E03B6880
:100D6C00DB6808333B621FE03B68DB680C333B629B
:100D7C001AE03B689B68002B02D104233B6213E012
:100D8C003B689B68012B05D108233B627B68FA69A1
:100D9C001A6109E008233B627B68FA695A6103E037
:100DAC0000233B6200E000BFBB69FF2B01D87B68CE
:100DBC0001E07B6804337B61BB69FF2B02D87B6A43
:100DCC009B0002E07B6A083B9B003B617B691A68D5
:100DDC000F213B6901FA03F3DB431A40396A3B6983
:100DEC0001FA03F31A437B691A603B685B6803F0F2
:100DFC008053002B00F09080564B9B69554A43F072
:100E0C0001039361534B9B6903F00103BB60BB6807
:100E1C00514A7B6A9B08023352F82330FB607B6A91
:100E2C0003F003039B000F2202FA03F3DB43FA687F
:100E3C001340FB607B68494A93420DD07B68484A5B
:100E4C00934207D07B68474A934201D1022304E0C6
:100E5C00032302E0012300E000237A6A02F003027C
:100E6C0092009340FA681343FB603B497B6A9B08F2
:100E7C000233FA6841F823203B685B6803F4801363
:100E8C00002B06D0384B9A683749BB6913438B60EB
:100E9C0006E0354B9A68BB69DB43334913408B60E2
:100EAC003B685B6803F40013002B06D02E4BDA680A
:100EBC002D49BB691343CB6006E02B4BDA68BB6949
:100ECC00DB4329491340CB603B685B6803F4003378
:100EDC00002B06D0244B5A682349BB6913434B6043
:100EEC0006E0214B5A68BB69DB431F4913404B603A
:100EFC003B685B6803F48033002B06D01A4B1A68EE
:100F0C001949BB6913430B6006E0174B1A68BB69A0
:100F1C00DB43154913400B607B6A01337B623B68F2
:100F2C001A687B6A22FA03F3002B7FF4AFAE00BF82
:100F3C0000BF2C37BD4680BC704700BF000032108C
:100F4C0000003110000022100000211000001210CF
:100F5C000000111000100240000001400008014088
:100F6C00000C0140001001400004014080B485B029
:100F7C0000AF78600B467B807B689A687B88134057
:100F8C00002B02D00123FB7301E00023FB73FB7BDE
:100F9C0018461437BD4680BC704780B483B000AF90
:100FAC0078600B467B8013467B707B78002B03D0DC
:100FBC007A887B681A6103E07B881A047B681A6163
:100FCC0000BF0C37BD4680BC704780B485B000AF05
:100FDC0078600B467B807B68DB68FB607A88FB68FB
:100FEC0013401A04FB68D9437B880B401A437B6877
:100FFC001A6100BF1437BD4680BC704780B586B0FF
:10100C0000AF78607B68002B01D101236CE27B6818
:10101C001B6803F00103002B00F08780924B5B6888
:10102C0003F00C03042B0CD08F4B5B6803F00C0308
:10103C00082B12D18C4B5B6803F48033B3F5803FE3
:10104C000BD1894B1B6803F40033002B6CD07B68ED
:10105C005B68002B68D1012346E27B685B68B3F5C3
:10106C00803F06D1804B1B687F4A43F4803313606A
:10107C002EE07B685B68002B0CD17B4B1B687A4A9B
:10108C0023F480331360784B1B68774A23F4802356
:10109C0013601DE07B685B68B3F5A02F0CD1724B1D
:1010AC001B68714A43F4802313606F4B1B686E4AB4
:1010BC0043F4803313600BE06B4B1B686A4A23F4D8
:1010CC0080331360684B1B68674A23F480231360DA
:1010DC007B685B68002B13D0FFF7B6FC386108E027
:1010EC00FFF7B2FC02463B69D31A642B01D90323E8
:1010FC00FAE15D4B1B6803F40033002BF0D014E0D5
:10110C00FFF7A2FC386108E0FFF79EFC02463B6942
:10111C00D31A642B01D90323E6E1534B1B6803F468
:10112C000033002BF0D100E000BF7B681B6803F09C
:10113C000203002B63D04C4B5B6803F00C03002BB9
:10114C000BD0494B5B6803F00C03082B1CD1464BAE
:10115C005B6803F48033002B16D1434B1B6803F000
:10116C000203002B05D07B681B69012B01D00123E6
:10117C00BAE13D4B1B6823F0F8027B685B69DB002E
:10118C00394913430B603AE07B681B69002B20D074
:10119C00364B01221A60FFF757FC386108E0FFF765
:1011AC0053FC02463B69D31A022B01D903239BE162
:1011BC002D4B1B6803F00203002BF0D02A4B1B684D
:1011CC0023F0F8027B685B69DB00274913430B6053
:1011DC0015E0264B00221A60FFF736FC386108E058
:1011EC00FFF732FC02463B69D31A022B01D90323C9
:1011FC007AE11D4B1B6803F00203002BF0D17B68D6
:10120C001B6803F00803002B3AD07B689B69002B0A
:10121C0019D0174B01221A60FFF716FC386108E051
:10122C00FFF712FC02463B69D31A022B01D90323A8
:10123C005AE10D4B5B6A03F00203002BF0D0012046
:10124C0000F09AFA1CE00A4B00221A60FFF7FCFB34
:10125C0038610FE0FFF7F8FB02463B69D31A022B0B
:10126C0008D9032340E100BF0010024000004242B5
:10127C00800442429E4B5B6A03F00203002BE9D1CF
:10128C007B681B6803F00403002B00F0A68000238E
:10129C00FB75974BDB6903F08053002B0DD1944BFE
:1012AC00DB69934A43F08053D361914BDB6903F0C4
:1012BC008053BB60BB680123FB758E4B1B6803F42A
:1012CC008073002B18D18B4B1B688A4A43F48073B4
:1012DC001360FFF7B9FB386108E0FFF7B5FB024676
:1012EC003B69D31A642B01D90323FDE0814B1B68A6
:1012FC0003F48073002BF0D07B68DB68012B06D1E4
:10130C007B4B1B6A7A4A43F0010313622DE07B6826
:10131C00DB68002B0CD1764B1B6A754A23F001035A
:10132C001362734B1B6A724A23F0040313621CE0B2
:10133C007B68DB68052B0CD16D4B1B6A6C4A43F048
:10134C00040313626A4B1B6A694A43F0010313627C
:10135C000BE0674B1B6A664A23F001031362644B74
:10136C001B6A634A23F0040313627B68DB68002B5F
:10137C0015D0FFF769FB38610AE0FFF765FB024601
:10138C003B69D31A41F28832934201D90323ABE073
:10139C00574B1B6A03F00203002BEED014E0FFF74F
:1013AC0053FB38610AE0FFF74FFB02463B69D31A47
:1013BC0041F28832934201D9032395E04C4B1B6ACE
:1013CC0003F00203002BEED1FB7D012B05D1484B22
:1013DC00DB69474A23F08053D3617B68DB69002BC0
:1013EC0000F08180424B5B6803F00C03082B61D04A
:1013FC007B68DB69022B46D13F4B00221A60FFF75A
:10140C0023FB386108E0FFF71FFB02463B69D31A48
:10141C00022B01D9032367E0354B1B6803F00073E3
:10142C00002BF0D17B681B6AB3F5803F08D1304BA1
:10143C005B6823F400327B689B682D4913434B6037
:10144C002B4B5B6823F474127B68196A7B685B6AAC
:10145C000B43274913434B60274B01221A60FFF7BC
:10146C00F3FA386108E0FFF7EFFA02463B69D31A4A
:10147C00022B01D9032337E01D4B1B6803F00073CB
:10148C00002BF0D02FE01C4B00221A60FFF7DCFA87
:10149C00386108E0FFF7D8FA02463B69D31A022BF1
:1014AC0001D9032320E0124B1B6803F00073002BBF
:1014BC00F0D118E07B68DB69012B01D1012313E02B
:1014CC000B4B5B68FB60FB6803F480327B681B6A28
:1014DC009A4206D1FB6803F470127B685B6A9A42ED
:1014EC0001D0012300E0002318461837BD4680BD0B
:1014FC0000100240007000406000424280B584B091
:10150C0000AF786039607B68002B01D10123D0E0FB
:10151C006A4B1B6803F007033A689A4210D9674B71
:10152C001B6823F0070265493B6813430B60634B50
:10153C001B6803F007033A689A4201D00123B8E014
:10154C007B681B6803F00203002B20D07B681B68B0
:10155C0003F00403002B05D0594B5B68584A43F445
:10156C00E06353607B681B6803F00803002B05D015
:10157C00534B5B68524A43F460535360504B5B6867
:10158C0023F0F0027B689B684D4913434B607B68EA
:10159C001B6803F00103002B40D07B685B68012BB8
:1015AC0007D1474B1B6803F40033002B15D10123E3
:1015BC007FE07B685B68022B07D1414B1B6803F013
:1015CC000073002B09D1012373E03D4B1B6803F022
:1015DC000203002B01D101236BE0394B5B6823F034
:1015EC0003027B685B68364913434B60FFF72CFAA8
:1015FC00F8600AE0FFF728FA0246FB68D31A41F2BA
:10160C008832934201D9032353E02D4B5B6803F0DE
:10161C000C027B685B689B009A42EBD1274B1B68E2
:10162C0003F007033A689A4210D2244B1B6823F04C
:10163C00070222493B6813430B60204B1B6803F0E5
:10164C0007033A689A4201D0012332E07B681B6899
:10165C0003F00403002B08D0194B5B6823F4E06201
:10166C007B68DB68164913434B607B681B6803F08F
:10167C000803002B09D0124B5B6823F460527B6883
:10168C001B69DB000E4913434B6000F021F8024646
:10169C000B4B5B681B0903F00F030A49CB5C22FA66
:1016AC0003F3094A1360094B1B681846FFF78AF9C4
:1016BC00002318461037BD4680BD00BF00200240F5
:1016CC0000100240B4210008140000201800002073
:1016DC0080B487B000AF0023FB600023BB60002305
:1016EC007B6100237B6000233B611E4B5B68FB60CE
:1016FC00FB6803F00C03042B02D0082B03D027E06B
:10170C00194B3B6127E0FB689B0C03F00F03174A56
:10171C00D35C7B60FB6803F48033002B10D0114B3F
:10172C005B685B0C03F00103114AD35CBB607B6804
:10173C000D4A02FB03F2BB68B2FBF3F37B6104E0DE
:10174C007B680C4A02FB03F37B617B693B6102E023
:10175C00054B3B6100BF3B6918461C37BD4680BC3E
:10176C00704700BF0010024000127A00C42100082C
:10177C00D421000800093D0080B485B000AF78602A
:10178C000A4B1B680A4AA2FB03235B0A7A6802FB1A
:10179C0003F3FB6000BFFB685A1EFA60002BF9D103
:1017AC0000BF00BF1437BD4680BC7047140000203A
:1017BC00D34D621080B582B000AF78607B68002B8F
:1017CC0001D1012341E07B6893F83D30DBB2002B63
:1017DC0006D17B68002283F83C207868FFF724F858
:1017EC007B68022283F83D207B681A687B6804338F
:1017FC001946104600F06EFA7B68012283F84620E9
:10180C007B68012283F83E207B68012283F83F200D
:10181C007B68012283F840207B68012283F84120F9
:10182C007B68012283F842207B68012283F84320E5
:10183C007B68012283F844207B68012283F84520D1
:10184C007B68012283F83D20002318460837BD46EB
:10185C0080BD000080B485B000AF78607B6893F8E1
:10186C003D30DBB2012B01D0012335E07B68022235
:10187C0083F83D207B681B68DA687B681B6842F044
:10188C000102DA607B681B68164A934209D07B68B8
:10189C001B68B3F1804F04D07B681B68124A9342DB
:1018AC0011D17B681B689B6803F00703FB60FB6826
:1018BC00062B10D07B681B681A687B681B6842F08B
:1018CC0001021A6007E07B681B681A687B681B685A
:1018DC0042F001021A60002318461437BD4680BC42
:1018EC00704700BF002C01400004004080B582B05E
:1018FC0000AF78607B681B681B6903F00203022B46
:10190C0022D17B681B68DB6803F00203022B1BD11E
:10191C007B681B686FF002021A617B6801221A77E0
:10192C007B681B689B6903F00303002B03D078686A
:10193C0000F0B4F905E0786800F0A7F9786800F0D9
:10194C00B6F97B6800221A777B681B681B6903F069
:10195C000403042B22D17B681B68DB6803F00403AF
:10196C00042B1BD17B681B686FF004021A617B6827
:10197C0002221A777B681B689B6903F44073002B67
:10198C0003D0786800F08AF905E0786800F07DF9FA
:10199C00786800F08CF97B6800221A777B681B68EA
:1019AC001B6903F00803082B22D17B681B68DB68DA
:1019BC0003F00803082B1BD17B681B686FF008022F
:1019CC001A617B6804221A777B681B68DB6903F059
:1019DC000303002B03D0786800F060F905E0786809
:1019EC0000F053F9786800F062F97B6800221A77EE
:1019FC007B681B681B6903F01003102B22D17B68DA
:101A0C001B68DB6803F01003102B1BD17B681B6871
:101A1C006FF010021A617B6808221A777B681B68CA
:101A2C00DB6903F44073002B03D0786800F036F9BF
:101A3C0005E0786800F029F9786800F038F97B68DF
:101A4C0000221A777B681B681B6903F00103012BCA
:101A5C000ED17B681B68DB6803F00103012B07D1F7
:101A6C007B681B686FF001021A617868FEF766FDEF
:101A7C007B681B681B6903F08003802B0ED17B688D
:101A8C001B68DB6803F08003802B07D17B681B6825
:101A9C006FF080021A61786800F06BFA7B681B6843
:101AAC001B6903F04003402B0ED17B681B68DB687D
:101ABC0003F04003402B07D17B681B686FF040029A
:101ACC001A61786800F0FCF87B681B681B6903F0EE
:101ADC002003202B0ED17B681B68DB6803F02003EE
:101AEC00202B07D17B681B686FF020021A61786885
:101AFC0000F036FA00BF0837BD4680BD80B584B013
:101B0C0000AF786039600023FB737B6893F83C303E
:101B1C00012B01D10223B4E07B68012283F83C2025
:101B2C007B68022283F83D207B681B689B68BB6046
:101B3C00BB6823F07703BB60BB6823F47F43BB60B7
:101B4C007B681B68BA689A603B681B68B3F5005FDA
:101B5C003ED0B3F5005F00F28780B3F5805F00F0F4
:101B6C008680B3F5805F7FD8702B1AD0702B7BD812
:101B7C00602B50D0602B77D8502B3CD0502B73D887
:101B8C00402B58D0402B6FD8302B64D0302B6BD8D7
:101B9C00202B60D0202B67D8002B5CD0102B5AD078
:101BAC0062E07B6818683B6899683B685A683B68D8
:101BBC00DB6800F05EF97B681B689B68BB60BB68E8
:101BCC0043F07703BB607B681B68BA689A604FE090
:101BDC007B6818683B6899683B685A683B68DB68A7
:101BEC0000F047F97B681B689A687B681B6842F4B5
:101BFC0080429A603CE07B6818683B6859683B6897
:101C0C00DB681A4600F0BEF87B681B68502118464A
:101C1C0000F015F92CE07B6818683B6859683B6844
:101C2C00DB681A4600F0DCF87B681B6860211846FC
:101C3C0000F005F91CE07B6818683B6859683B6844
:101C4C00DB681A4600F09EF87B681B68402118463A
:101C5C0000F0F5F80CE07B681A683B681B681946C5
:101C6C00104600F0ECF803E00123FB7300E000BF2A
:101C7C007B68012283F83D207B68002283F83C209E
:101C8C00FB7B18461037BD4680BD80B483B000AFD7
:101C9C00786000BF0C37BD4680BC704780B483B001
:101CAC0000AF786000BF0C37BD4680BC704780B475
:101CBC0083B000AF786000BF0C37BD4680BC704766
:101CCC0080B483B000AF786000BF0C37BD4680BCD9
:101CDC007047000080B485B000AF786039607B68D5
:101CEC001B68FB607B68254A934207D07B68B3F185
:101CFC00804F03D07B68224A934208D1FB6823F0C3
:101D0C007003FB603B685B68FA681343FB607B689D
:101D1C001A4A934207D07B68B3F1804F03D07B689B
:101D2C00174A934208D1FB6823F44073FB603B686D
:101D3C00DB68FA681343FB60FB6823F080023B68A6
:101D4C005B691343FB607B68FA681A603B689A68AE
:101D5C007B68DA623B681A687B689A627B68074A20
:101D6C00934203D13B681A697B681A637B68012232
:101D7C005A6100BF1437BD4680BC7047002C01402F
:101D8C000004004080B487B000AFF860B9607A609E
:101D9C00FB681B6A7B61FB681B6A23F00102FB6812
:101DAC001A62FB689B693B613B6923F0F0033B6162
:101DBC007B681B013A6913433B617B6923F00A037F
:101DCC007B617A69BB6813437B61FB683A699A61F2
:101DDC00FB687A691A6200BF1C37BD4680BC70472D
:101DEC0080B487B000AFF860B9607A60FB681B6A9A
:101DFC007B61FB681B6A23F01002FB681A62FB68AC
:101E0C009B693B613B6923F470433B617B681B031B
:101E1C003A6913433B617B6923F0A0037B61BB6888
:101E2C001B017A6913437B61FB683A699A61FB6811
:101E3C007A691A6200BF1C37BD4680BC704780B4FB
:101E4C0085B000AF786039607B689B68FB60FB688D
:101E5C0023F07003FB603A68FB68134343F00703FD
:101E6C00FB607B68FA689A6000BF1437BD4680BC83
:101E7C00704780B487B000AFF860B9607A603B609F
:101E8C00FB689B687B617B6923F47F437B613B68C8
:101E9C001A027B681A43BB6813437A6913437B614C
:101EAC00FB687A699A6000BF1C37BD4680BC7047DE
:101EBC0080B485B000AF786039607B6893F83C30B3
:101ECC00012B01D1022341E07B68012283F83C20E5
:101EDC007B68022283F83D207B681B685B68FB6093
:101EEC007B681B689B68BB60FB6823F07003FB601E
:101EFC003B681B68FA681343FB607B681B68FA68D5
:101F0C005A607B681B68144A934209D07B681B6833
:101F1C00B3F1804F04D07B681B68104A93420CD1FC
:101F2C00BB6823F08003BB603B685B68BA681343F3
:101F3C00BB607B681B68BA689A607B68012283F877
:101F4C003D207B68002283F83C2000231846143780
:101F5C00BD4680BC704700BF002C0140000400400F
:101F6C0080B483B000AF786000BF0C37BD4680BC36
:101F7C00704780B483B000AF786000BF0C37BD46AB
:101F8C0080BC7047014B1868704700BF20000020D0
:101F9C0070B500260C4D0D4C641BA410A64209D143
:101FAC0000F0F6F800260A4D0A4C641BA410A64259
:101FBC0005D170BD55F8043B98470136EEE755F84E
:101FCC00043B98470136F2E7D8210008D8210008D5
:101FDC00D8210008DC210008024B0146186800F0EB
:101FEC005FB800BF20000020024B0146186800F0CB
:101FFC000BB800BF2000002003460244934200D1DE
:10200C00704703F8011BF9E738B50546002943D0A2
:10201C0051F8043C0C1F002BB8BFE41800F0AAF8D0
:10202C001E4A1368104633B9636014602846BDE835
:10203C00384000F0A5B8A3420AD92168621893422F
:10204C0001BF1A685B685218226063600460EDE798
:10205C001A465B680BB1A342FAD911685018A0421A
:10206C000BD120680144501883421160DED11868EE
:10207C005B68014411605360D8E702D90C232B60D4
:10208C00D4E7206821188B4201BF19685B680918D6
:10209C00216063605460C9E738BD00BFA800002010
:1020AC00F8B5CD1C25F0030508350C2D38BF0C25D3
:1020BC00002D064601DBA94203D90C233360002016
:1020CC00F8BD00F057F821490A6814469CB9204F16
:1020DC003B6823B92146304600F03CF8386029466D
:1020EC00304600F037F8431C23D10C2330463360C4
:1020FC0000F046F8E3E723685B1B17D40B2B03D9DE
:10210C0023601C44256004E06368A2420CBF0B6092
:10211C005360304600F034F804F10B00231D20F01E
:10212C000700C21ACCD01B1AA350C9E72246646818
:10213C00CCE7C41C24F00304A042E3D0211A30469F
:10214C0000F008F80130DDD1CFE700BFA800002077
:10215C00AC00002038B50023054D044608462B6022
:10216C00FEF7B8FB431C02D12B6803B1236038BDCA
:10217C0000010020014800F009B800BF0801002050
:10218C00014800F004B800BF0801002070477047F8
:10219C00F8B500BFF8BC08BC9E467047F8B500BF48
:0821AC00F8BC08BC9E46704718
:1021B40000000000000000000102030406070809F3
:1021C40002030405060708090A0B0C0D0E0F101074
:0421D4000102000004
:0421D80031010008C9
:0421DC000D010008E9
:1021E00001000000010000000100000001000000EB
:1021F000320000000024F400100000000100000084
:10220000240000200000000000000000000000008A
:1022100000000000000000000000000000000000BE
:1022200000000000000000000000000000000000AE
:10223000000000000000000000000000000000009E
:10224000000000000000000000000000000000008E
:10225000000000000000000000000000000000007E
:04226000000000007A
:04000005080009598D
:00000001FF
